:400000000040002011000000091500000915000080B500AF01F0A6FA80B584B000AF021CFB1D1A70204A3B1C0B3312781A701F4A3B1C0A3312781A700423013BFB6018E0EC
:400040001B4B1868391C0B31FA68131C5B009B18C3185B780B70164B1868391C0A31FA68131C5B009B18C3189B780B70FB68013BFB60FB68002B0ADB0D4B1968FA68131CF1
:400080005B009B185B5CFA1D12789A42D8D9094B3A1C0B3212781A60074B3A1C0A3212781A60BD4604B080BDCCF1FF0FCDF1FF0F0C0100201CFF0B4020FF0B4080B500AF0E
:4000C000284B12221A603020FFF7A6FF264B274A1278D2B21A60052003F0EAF9244B35221A6002F06BFFFA235B00181C03F0BCF9012002F073FF1F4B1F4A1A601F4B8022C1
:40010000D2051A601E4B1F4A1A601F4B1E4A126808218A431A60FA23DB00181C02F008FF1A4B181C03F0C4F9194BE82252011A60184B194A1A60194BC82252011A60154B02
:40014000174A1A60174B822212061A60164B8022D2021A60154B41221A60154B40221A60BD4680BD3000104028FF0B40FDF1FF0F2CFF0B4004010B40060000800C020B406F
:400180007C002E406A2D00006CF02E40DC050000040301400000014041FF00800003014040FF008008010B4000010B40180101400401014080B582B000AF72B6454B002297
:4001C0001A60FB1D00221A7023E0FB1D1A78131C5B009B185B00404A9B183B603B681A78597809020A43997809040A43DB781B0613431A1C3B6819795B791B020B439BB21A
:40020000101C191C01F032FAFB1D1A78FB1D01321A70FB1D1B78012BD7D9304BEE2212061A602F4B992212041A602E4BD82212041A602D4B20221A602C4BC42292021A60B6
:400240002B4B20221A602B4B80221A602A4BB022D2031A60294B802212021A60284B01221A60284BD82212041A60274B01221A60264B992212041A60254B992212041A60ED
:40028000244B992212041A60234B992212041A60224B224A1278D2B202210A43D2B21A701F4B1F4A1278D2B23C218A43D2B214210A43D2B21A70194B184A1278D2B216213C
:4002C0000A43D2B21A70FFF7F9FE01F0DFF9BD4602B080BD6CF02E409048010000000240000102400800044000010440080104401801044000020440080204400C020440B2
:4003000000030440080304401803044000500F4010500F4020500F4030500F4000700F4001700F4010B5064C2378002B07D1054B002B02D0044800E000BF0123237010BDFC
:400340009004002000000000C040010008B5084B002B03D00748084900E000BF07480368002B03D0064B002B00D0984708BDC04600000000C040010094040020C80000202C
:400380000000000080B582B000AF786039607A683B68101C191C00F059F97B68272B0AD0282B02D0012B00D009E0064B00221A8000F0BEFA03E0012002F014FCC046BD46B1
:4003C00002B080BDB004002080B500AF02F070FF021C8023DB00134019D00E4B1B78032B0BD10D4B1B7801225340DAB20A4B1A70094B1B78181C02F0F5FB084B1B685A1CD2
:40040000064B1A608023DB00181C02F05FFFBD4680BDC046D4250020CC000020AC04002080B500AF02F024FE0E4B181C02F0B2FC0120012102F05AFE0120012102F086FE69
:40044000094B0120191C02F0EBFE012002F074FF80235B00181C02F0B1FE02F0DFFDBD4680BDC046C9030000FF7F000090B583B000AF62B602F092F9594B181C03F0ECFCD1
:40048000012002F0F9FB012002F0ACFB012002F0CFFB544B181C01F029FB031C1A1C524B1A80514B1B88002B06D04F4B1B884F4A101C191C03F054FC00F034FF00F078FBEA
:4004C00002F000FAFFF7ACFF494B022002211A1C01F024FF031C1A1C434B1A80424B1B88002B06D0404B1B88424A101C191C03F037FC414B1B78012B33D0FC1D032004F0DF
:40050000ABFB031C237072B6BC1D05F078FE031C2370FB1D1B78032B1CD1BB1D1B78042B03D0BB1D1B78062B1AD102F063F9021C324B196880231B020B4001D0012300E041
:400540000023D318002B02D102F0E0FF08E002F0C3FF05E0BB1D1B78022B01D002F0BCFF62B6254B1B78022B36D1254B1B68002B12D0234B00221A60224B1B88012B03D19E
:4005800000F0F8FE04F074FB1F4B1B781A1C0323134001D000F01EFE1C4B1B78002B1BD002F028F9021C154B196880231B020B4001D0012300E00023D318002B0CD13C1DF8
:4005C000002001F0DBFA031C23803B1D1B88104A101C191C03F0C4FB04F04AFB89E7C0460041010085030000C02500202C410100D00000204C410100D425002008022440FA
:40060000AC040020B0040020C2250020C42500208041010080B586B000AFF860B9607A6000237B6109E0BB685A1CBA601B78181C02F0CAF87B6901337B617A697B689A4233
:40064000F1DB7B68181CBD4606B080BD90B585B002AF786039607B68252B00D169E019D8052B3DD00AD8022B3FD002D8012B32D011E1032B41D0042B44D00CE1222B4BD09B
:4006800002D8212B43D006E1232B4AD0242B00D18FE000E1402B00D1A3E00ED8282B00D182E003D8272B00D171E0F4E0292B00D18FE02A2B00D172E0EDE0422B00D1E0E01D
:4006C00000D2D2E0702B00D1E0E0E0221202934200D1E8E0DFE0764B181C03F0BDFBE3E0744B181C03F0B8FBDEE03B681B78724A101C191C03F034FBD6E0704B181C03F040
:40070000ABFBD1E06E4B181C03F0A6FBCCE06D4B181C03F025FBC7E06B4B181C03F020FBC2E03B681B68694A101C191C03F018FBBAE0674B181C03F013FB3B681B78062BCD
:400740000DD002DC042B05D018E0082B0CD0152B0FD013E05F4B181C03F07EFB16E05E4B181C03F079FB11E05C4B181C03F074FB0CE05B4B181C03F06FFB07E03B681B78AF
:40078000584A101C191C03F0EBFAC0468CE0564B1B78564A101C191C03F0E2FA84E0544B181C03F059FB7FE0524B181C03F054FB7AE03B681B78191C3B685B781A1C3B68E4
:4007C0009B783868C078041C4B48009403F0C8FA6AE03B681B78494A101C191C03F0C0FA62E0474B181C03F0BBFA3B689B78082B08D0102B0BD0042B0ED1424B181C03F0A8
:40080000AFFA11E0404B181C03F0AAFA0CE03F4B181C03F0A5FA07E03B689B783C4A101C191C03F09DFAC0463B689B88394A101C191C03F095FA384B181C03F091FA3B6874
:400840009B790A2B04D1354B181C03F089FA07E03B689B792E4A101C191C03F081FAC0462F4B181C03F0F8FA1EE03B685B781A1C3B681B782B49081C111C1A1C03F070FA7A
:4008800012E0294B181C03F0E7FA0DE0274B181C03F0E2FA08E07A683B68101C191C00F093F8C04600E0C046BD4603B090BDC046A4410100B4410100CC410100E04101001E
:4008C000F84101000C42010020420100404201006C4201008C420100A8420100CC420100E0420100F8420100DC25002004430100244301004C4301006C430100B8430100A6
:40090000D8430100F8430100084401001C44010030440100344401004844010054440100684401006C4401009C440100B844010080B584B000AF002001F08EF9031C1A1C5C
:400940001C4B1A801B4B1B88002B07D0194B1B88194A101C191C03F003FA27E0174B181C03F0FEF93B1D181C04F07EF93B1C0E3306221A8011E03B1C0E331B88013B3A1D19
:40098000D35C0F4A101C191C03F0EAF93B1C0E331A883B1C0E33013A1A803B1C0E331B88002BE8D1074B181C03F056FABD4604B080BDC046C0250020DC4401000045010083
:4009C000204501002845010080B584B000AF786039607B68432B00D165E002D8262B05D06BE04C2B34D0542B62D066E0344B1B78344A101C191C03F0B3F9314B1B78042BA8
:400A000025D1314B181C03F027FA012002F0EAF8002002F031F9012002F00AF9C04601F0E9FE021C294B196880231B020B4001D0012300E00023D318002BF0D102F0BAF846
:400A400002F09EF902F03EF902F096FD35E034E03B689B891E4A101C191C03F081F93B1C0E3300221A8012E03B685A683B1C0E331B88D3181B78174A101C191C03F070F997
:400A80003B1C0E331A883B1C0E3301321A803B681B893A1C0E3212889A42E5D30E4B181C03F0DAF909E00D4B181C03F0D5F904E00B4B181C03F0D0F9C046BD4604B080BDDF
:400AC000D42500202C4501006445010008022440704501008C4501002845010094450100B045010080B582B000AF786039607B68213BFF3B042B3FD89A00244BD3181B68D0
:400B00009F46234B181C03F0A7F9224B00221A70214B1B7802221343DAB21F4B1A7032E01E4B181C03F098F91B4B1B7802229343DAB2194B1A7026E0194B181C03F08CF9D3
:400B4000144B00221A70144B1B7801221343DAB2114B1A7017E0134B181C03F07DF90E4B1B7801229343DAB20B4B1A700BE00E4B181C03F071F906E00C4A7B68101C191CF5
:400B800003F0EEF8C046BD4602B080BDFC460100D0450100C3250020C2250020084601004046010074460100A8460100E046010080B500AF044B00221A70044B181C01F002
:400BC000A1FBBD4680BDC046C2250020E50A000090B589B000AF021CFB1D1A70FB1D1A78B94B16214A43D25C3B1C08331A70FB1D1B78B54A16214B43D3185B88DAB23B1C54
:400C000008335A70FB1D1B78AF4A16214B43D3185B881B0A9BB2DAB23B1C08339A70FB1D1B78A94A16214B43D3189B88DAB23B1C0833DA70FB1D1B78A34A16214B43D318BD
:400C40009B881B0A9BB2DAB23B1C08331A71FB1D1B789D4A16214B43D318DB88DAB23B1C08335A71FB1D1B78974A16214B43D318DB881B0A9BB2DAB23B1C08339A71FB1D56
:400C80001A78914B16214A43D35C1A1C0223134055D0FB1D1B788C4A16214B43D31808331B88DAB23B1C0833DA71FB1D1B78864A16214B43D31808331B881B0A9BB2DAB281
:400CC0003B1C08331A72FB1D1B787F4A16214B43D31808339A783B1C08335A72FB1D1B78794A16214B43D3180833DA783B1C08339A72FB1D1B78744A16214B43D31808336A
:400D00001A793B1C0833DA72FB1D1B786E4A16214B43D31808335A793B1C08331A73FB1D1B78694A16214B43D31808339A793B1C08335A733B1C1F330E221A7003E03B1CAA
:400D40001F3307221A70FB1D1A785F4B16214A43D35C1A1C0423134027D03B1C1F331B78FA1D12785849162042438A1810321288D1B23A1C0832D1543B1C1F331B78013321
:400D8000FA1D12785049162042438A1810321288120A92B2D1B23A1C0832D1543B1C1F333A1C1F32127802321A70FB1D1A78464B16214A43D35C1A1C0823134014D03B1C73
:400DC0001F331B78FA1D12783F49162042438A18103291783A1C0832D1543B1C1F333A1C1F32127801321A70FB1D1A78364B16214A43D35C1A1C1023134027D03B1C1F3377
:400E00001B78FA1D12783049162042438A1810329288D1B23A1C0832D1543B1C1F331B780133FA1D12782849162042438A1810329288120A92B2D1B23A1C0832D1543B1CEA
:400E40001F333A1C1F32127802321A701F4B3A1C1F3212783C1C083419785B781B02194300230904090C1B0C1B040B43181C0021231C01F021FB031C1A1C154B1A80144BFD
:400E80001B88002B07D0124B1B88124A101C191C02F066FF14E0FB1D1B780B4A16214B43D3185B881A1CFB1D1B78074916204343CB189B880849081C111C1A1C02F050FFE6
:400EC000BD4609B090BDC046D4000020DC250020C0250020104701003C47010090B589B000AF021CFB1D1A70FB1D1A78B44B16214A43D25C3B1C08331A70FB1D1B78B04AA4
:400F000016214B43D3185B88DAB23B1C08335A70FB1D1B78AA4A16214B43D3185B881B0A9BB2DAB23B1C08339A70FB1D1B78A44A16214B43D3189B88DAB23B1C0833DA7096
:400F4000FB1D1B789E4A16214B43D3189B881B0A9BB2DAB23B1C08331A71FB1D1B78984A16214B43D318DB88DAB23B1C08335A71FB1D1B78924A16214B43D318DB881B0AA8
:400F80009BB2DAB23B1C08339A71FB1D1A788C4B16214A43D35C1A1C0223134055D0FB1D1B78874A16214B43D31808331B88DAB23B1C0833DA71FB1D1B78814A16214B43C6
:400FC000D31808331B881B0A9BB2DAB23B1C08331A72FB1D1B787A4A16214B43D31808339A783B1C08335A72FB1D1B78744A16214B43D3180833DA783B1C08339A72FB1DE6
:401000001B786F4A16214B43D31808331A793B1C0833DA72FB1D1B78694A16214B43D31808335A793B1C08331A73FB1D1B78644A16214B43D31808339A793B1C08335A7317
:401040003B1C1F330E221A7003E03B1C1F3307221A70FB1D1A785A4B16214A43D35C1A1C0423134027D03B1C1F331B78FA1D12785349162042438A1810321288D1B23A1C5A
:401080000832D1543B1C1F331B780133FA1D12784B49162042438A1810321288120A92B2D1B23A1C0832D1543B1C1F333A1C1F32127802321A70FB1D1A78414B16214A43C9
:4010C000D35C1A1C0823134014D03B1C1F331B78FA1D12783A49162042438A18103291783A1C0832D1543B1C1F333A1C1F32127801321A70FB1D1A78314B16214A43D35CBC
:401100001A1C1023134027D03B1C1F331B78FA1D12782B49162042438A1810329288D1B23A1C0832D1543B1C1F331B780133FA1D12782349162042438A1810329288120A68
:4011400092B2D1B23A1C0832D1543B1C1F333A1C1F32127802321A701A4B3A1C1F3212783C1C083419785B781B02194300230904090C1B0C1B040B43181C0121231C01F0F5
:401180001DF9031C1A1C104B1A800F4B1B88002B07D00D4B1B880D4A101C191C02F0E0FD0BE0FB1D1B78064A16214B43D3185B88074A101C191C02F0D3FDBD4609B090BD58
:4011C000EC000020DC250020C02500206C4701009847010080B500AF264B1B780133DAB2244B1A70234B1B783B2B02D9214B00221A70214B1B781A1C0223134016D01D4B33
:401200001B781A1C072313409BB21A1C9200D318DB189BB2C822D31A9AB2184B5A80154B1A78164B9A730020FFF758FE124B1B781A1C012313401AD00E4B1B781A1C3823F8
:4012400013409BB264339AB20D4B5A80094B1B781A1C382313409BB23C339AB2084B9A80044B1A78064B9A730020FFF7B1FCBD4680BDC046C3250020C2250020EC00002016
:40128000D400002080B584B000AF786039603B1C0F333A6892781A701D4A7B68101C191C02F05EFD7B688D225200934204D01C22FF32934212D023E03B1C0F331B78154AA9
:4012C000101C191C02F04CFD3B1C0F331B78002B03D1114B01221A8017E016E03B1C0F331B780E4A101C191C02F03AFD3B1C0F331B78002B03D1084B00221A8005E004E010
:40130000074B181C02F0A8FDC046BD4604B080BDC4470100D8470100B0040020004801002848010090B585B002AF104B181C00F0F3F9BC1D3B1D00930020002100220223FA
:4013400000F044FA031C2380BB1D1B88002B0AD13B1D1B88002B06D0054B1B88012213439AB2034B1A80BD4603B090BD85120000B004002090B587B002AF584B1B685A1E27
:40138000564B1A60554B1B68002B00D0A2E0534B03221A60524B1B68F0229343FB60504BFA68C0210A431A60192002F05DF84C4B1B68F0229343FB60494BFA6870210A437C
:4013C0001A60012002F050F801F096FB022001F09DFB3C1C0A34002001F0BCFB031C23803B1C0A3300215B5E80229003191C02F009FC031C7B607A683A4B9A4203DC7B1C49
:4014000000221A702FE07A68374B9A4211DC7B6836495A18131CDB009B1A9B009B18181CC823990002F0EEFB031CDAB27B1C1A7019E07A682E4B9A4212DC7B682D495A189B
:40144000131CDB009B18DB009B1A181CC82102F0D9FB031CDBB21D33DAB27B1C1A7002E07B1C64221A707B1C1B78092B03D8002001F0DEFB02E0012001F0DAFBBC1C1E4BDD
:401480007A1C00921A785B781B021A4300231204120C1B0C1B041343181C00210022012300F08EFA031C2380BB1C1B88002B0AD0BB1C1B88114A101C191C02F051FC104B0E
:4014C00000221A8006E07B1C1B780E4A101C191C02F046FCBD4605B090BDC0460401002000003A40CF070000EF0A000030F8FFFFB70B000010F5FFFFDC2500204048010025
:40150000B00400206848010080B500AFFEE7C04680B584B000AF7860104B1A687B68D3181A1C0F4BD21A8023DB009A4209DC0B4B1B68FB60094B1A687B68D218074B1A605E
:4015400007E002F0C1FB031C0C221A6001235B42FB60FB68181CBD4604B080BD08010020F025002080B586B000AF224B7B61224B3B61204B7B6135E03B691B68FB603B691C
:401580005B68BB603B699B683B6000237B600CE0FB681A68BB681A60BB680433BB60FB680433FB607B6804337B607A683B689A42EED13B69DB683B6000237B6008E0BB6895
:4015C00000221A60BB680433BB607B6804337B607A683B689A42F2D13B6910333B617B69013B7B617B69002BC6D102F073FBFEF73DFFFEE701000000504E010080B582B01F
:4016000000AF154B144A126801218A431A6000237B600FE07B68032B04D8104B7A689200D35800E00E4B0F4A796889008B507B6801337B607B682F2BECD9FEF7BBFD0A4BB9
:4016400000221A60044B044A126801210A431A60BD4602B080BDC04600001040000000000915000000000020C000002080B582B000AF786039607A683B68101C00211A1CD9
:4016800002F066FBBD4602B080BDC04680B500AF0A4B03221A600A4B03221A60094B802212051A60084B01221A60084B00221A60012000F00DF8BD4680BDC04630003040B1
:4016C0003000314000003A4000033A40000E3F4080B584B000AF021CFB1D1A700B4B1B68FB60FB1D1B78002B05D0FB68802212061343FB6003E0FB685B005B08FB60034B93
:40170000FA681A60BD4604B080BDC04680033A4080B500AFBD4680BD80B582B000AF7860024B7A681A60BD4602B080BDB404002080B586B000AF3B60FB1D1870BB1D19709B
:401740007B1D1A703B1C163300221A80FB1D1B78002B0BD1BB1D1B78002B07D17B1D1B78012B03D13B681B78642B04D93B1C163301221A8021E0FB1D1B78134ADB00D318D2
:401780005A883B1C08331A817B1D1B789AB23B1C08339A803B1C08333A681A603B1C0833181C0021002200230EF0BAF8031C002B03D03B1C163301221A803B1C16331B88B0
:4017C000181CBD4606B080BD9C48010090B587B000AF041C081C111C1A1CFB1D1C70BB1D18707B1D19703B1D1A703B1C163300221A80FB1D1B78002B07D1BB1D1B78002B61
:4018000003D17B1D1B78012B04D93B1C163301221A8029E07B1D1B78002B04D12C223B1C08331A8108E0FB1D1B78134ADB00D3189A883B1C08331A813B1D1B789AB23B1C01
:4018400008339A803B1C0833BA6A1A603B1C0833181C002100220EF047F8031C002B03D03B1C163301221A803B1C16331B88181CBD4607B090BDC0469C48010090B587B03E
:4018800000AF78603B1C173300221A703B1C163300221A70454B1B68002B00D17EE07B689A892C239A426CD13B1C17331B78404ADB00D3185B885A1E3E49131C9B009B184A
:4018C0009B00CB185A6880235B0113404CD07B681A1D7B683C1C1634101C00211A1C40230EF01EF8031C23703B1C16331B78002B3ED13B1C0C337A6812881A803B1C0C3340
:401900003A1C173212789A703B1C0C330022DA703B1C0C3300225A607B685B68181C00F02DFA031C1A1C012313409BB2002B09D01E4B1B688D2251003A1C0C32081C111C21
:40194000984709E0194B1B681C22111CFF313A1C0C32081C111C9847174B1B7802221343DAB2154B1A7003E03B1C163306221A70124B1B78DBB201229343DAB20F4B1A7059
:401980000CE03B1C17331A783B1C173301321A703B1C17331B78002B00D180E73B1C16331B78181CBD4607B090BDC046B40400209C480100A8490100C4250020DF250020C3
:4019C00090B587B000AF3C1D2080081C111C1A1CFB1C1870BB1C19707B1C1A703C1C1634FB1C1878BB1C19787B1C1A78BB6AFFF79FFE031C23803B1C16331B88002B44D145
:401A0000254B1B78022B05D03B1C1633832252001A803AE02C23002B13D02C235A1E1F49131C9B009B189B00CB1808339B68181C00F0A4F9031C1A1C012313409BB2002B8C
:401A400005D13B1C16330422FF321A801DE0FB1C1B78134ADB00D3185A883B1C08331A813B1C0833BA6A1A607B1C1B789AB23B1C08339A803C1C16343B1D3A1C08321868CA
:401A8000111C0DF0ABFA031C23803B1C16331B88181CBD4607B090BDD4250020A84901009C48010080B500AF074B00221A70074B00221A70064B00221A7000F00DF8054B05
:401AC00000221A70BD4680BDDF250020D8250020DE250020C425002080B500AFFFF718FE00F00CFC00F006FCBD4680BD90B585B000AF78603B1C0E3301221A80194B1B7826
:401B0000002B04D1FFF7CEFF164B01221A707B68002B1FD0144B7A681A603C1C0E34134A134B101C191C172203F0B8F8031C23803B1C0E331B88002B0CD10E4B01221A707F
:401B40003C1C0E340C4B181C2C2115220DF0B4FE031C23803B1C0E331B88181CBD4605B090BDC046B8040020C8250020D11F0000C0040020D4250020A849010090B585B08F
:401B800000AF021CFB1D1A703B1C0E3300221A802D4B1B781A1C012313401ED03C1C0E34FB1D1B78181C09F067FC031C23803B1C0E331B88002B10D1234B1B7801229343E4
:401BC000DAB2214B1A70204B1B781A1C0223134003D03B1C0E3328221A803B1C0E331B88002B03D0FB1D1B78002B26D0164B1B781A1C0223134020D0144B1B78042B1CD8BC
:401C0000124B1B78DA00124BD2183C1C0E341149FB1D1B78081C111C082209F01BFC031C23803B1C0E331B88002B06D1064B1B7802229343DAB2044B1A703B1C0E331B88EC
:401C4000181CBD4605B090BDC4250020DC25002080490100CC25002090B585B000AF021CFB1D1A70294B1B78042B42D1284B1B78DBB21A1C042313403BD1FB1D1B78002BCF
:401C80000BD1244B1E221A82224B5B6820221A80204B5B6830225A8010E0FB1D1B78012B0CD11C4B96221A821A4B5B68C822D2001A80184B5B68FA2212015A80164BFA1D13
:401CC00012781A703C1C0E34124B181C0CF036F8031C23803B1C0E331B88002B08D10C4B1B78DBB204221343DAB2094B1A7005E004E03B1C0E33832252001A803B1C0E3393
:401D00001B88181CBD4605B090BDC046D4250020DF25002060010020DE25002080B584B000AF78600A1CFB1C1A700023BB60BB68002B20D07B689A79BB681A703B1C0F3371
:401D400000221A7012E03B1C0F331B780133BA68D3183A1C0F32127879688A5C1A703B1C0F331A783B1C0F3301321A703B1C0F331B78052BE7D9BD4604B080BD80B582B0EE
:401D800000AF78607B681B781A1C7B6801331B781B029BB213439BB2181CBD4602B080BD90B585B000AF78603B1C0F3300221A707B689A890B239A4237D17B681A1D7B68B8
:401DC0003C1C0F34101C00211A1C40230DF0A8FD031C23703B1C0F331B78002B1DD17B685B68181CFFF7CAFF031C1A1C022313409BB2002B08D0104B1B68822251007A685E
:401E0000081C111C984708E00B4B1B680622111CFF317A68081C111C9847084B1B78DBB201229343DAB2054B1A703B1C0F331B78181CBD4605B090BDC8250020DF250020B2
:401E400090B585B000AF78603C1C0F347B68181CFFF7A6FF031C23703B1C0F331B78002B0ED1264B1B78DBB21A1C0123134007D03C1C0F347B68181CFFF700FD031C2370C0
:401E80003B1C0F331B78002B0ED11C4B1B78DBB21A1C0123134007D03C1C0F347B68181C00F0CEFB031C2370144B1B78DBB21A1C012313401FD13B1C0F331B78002B16D06B
:401EC0003B1C083312229A707B689A893B1C08331A803B1C08333A1C0F321278DA707B683A1C08321868111C0DF04EF803E07B6818680DF0BDF8BD4605B090BDDF2500205F
:401F000080B582B000AF78607B68002B03D07B68181C00F057FBBD4602B080BD80B500AF034B00225A70024B00221A70BD4680BDDC25002080B582B000AF7860BD4602B06C
:401F400080BDC04680B500AFBD4680BD80B584B000AF78603B1C0E3300221A707B689B79002B1CD13B1C0F3300221A7012E03B1C0F331B787A68D35C002B04D03B1C0E33AC
:401F800001221A700BE03B1C0F331A783B1C0F3301321A703B1C0F331B78052BE7D93B1C0E331B78181CBD4604B080BD80B582B000AF021CBB1D1A80BD4602B080BDC046FB
:401FC00080B582B000AF7860BD4602B080BDC04680B584B000AF021C3960FB1D1A70B94B1B78DBB201221343DAB2B64B1A70FB1D1B782A2B00D19EE016DC212B00D183E015
:4020000008DC022B00D175E0052B00D177E0012B27D03DE1272B00D192E0282B00D197E0262B00D198E033E14C2B00D11DE109DC422B00D1F8E0432B00D1F8E0412B00D15D
:40204000D7E025E1542B00D114E103DC4E2B00D11DE11DE1712B00D1C5E0FA2B00D10EE116E13B1C0C3307221A703B1C0C3300225A703B1C0C33181C04F0F0F83B1C0C3344
:4020800007221A703B1C0C3301225A703B1C0C33181C04F0E3F88C4B1B68181CFFF756FF031C002B11D0884B1B68181C02F0E4FD854B1B68181C0021FFF730FE824B1B68D4
:4020C000181C0121FFF72AFE0DE0804B181C02F0D3FD7E4B181C0021FFF720FE7B4B181C0121FFF71BFE03200BF0EAFC784B04221A70CDE03B68181CFFF71CFFC8E03B680A
:402100001A78744B1A70C3E06E4B1B78DBB21A1C202313400ED1704B1B78102B02D16E4B0522DA706D4B1A786B4B101C191C0BF0CFFDADE0ACE03B68181CFFF741FFA7E042
:402140003B68181CFFF73CFF614B02221A709FE05F4B04221A709BE05D4B1B78022B41D0584B1B78DBB21A1C012313403AD0554B1B78DBB21A1C042313400BD0544B0322A7
:402180001A70504B1B78DBB204229343DAB24D4B1A7027E04B4B1B78DBB21A1C082313400BD04B4B04221A70464B1B78DBB208229343DAB2434B1A7014E0454B1B78032B04
:4021C00010D1434B04221A70454B1B78002B09D10120FFF741FD031C002B03D13C4B03221A7055E054E03B681B88181CFFF7DEFE4EE03A4A3B68111C1A1C0223081C111C0C
:402200001A1C01F09CFD354B1B78DA00354BD318354A111C1A1C0823081C111C1A1C01F08EFDFFF78FFE33E0FFF778FE30E03B685B88162B05D83B1C0E333A6852881A8012
:4022400003E03B1C0E3317221A803B683A1C0E321288198800230904090C1B0C1B040B43181C111C0CF09CFE12E03B68181CFFF7E7FD0DE03B68181CFFF742FE08E01B4BE1
:402280001B7801221343DAB2184B1A7000E0C0460C4B1B78DBB21A1C112313400FD0094B1B78DBB201229343DAB2064B1A70104B1B68FA1D11783A68081C111C9847BD4679
:4022C00004B080BDDF2500207C01002074010020D4250020D8250020EC010020DC250020DE25002080490100CC250020C4250020C825002080B500AFBD4680BD80B500AF17
:40230000BD4680BD80B582B000AF7860024B7A681A60BD4602B080BD5811002080B586B000AF3A60FB1D021C1A70BB1D0A1C1A703B1C163300221A80FB1D1B78022B04D93E
:402340003B1C163301221A802EE0FB1D1B781A4A9B00D3185B88002B04D13B1C163313221A8021E0FB1D1B78134A9B00D3185A883B1C08331A81BB1D1B789AB23B1C083324
:402380009A803B1C08333A681A603B1C0833181C0021002200230DF0C3FA031C002B03D03B1C163301221A803B1C16331B88181CBD4606B080BDC046804D010090B589B036
:4023C00000AF3C1C0C3420807B603B1C0B3319703B1C0A331A70354B1B78022B05D03B1C1E33832252001A8058E03B1C0B331B78022B04D93B1C1E3301221A804EE03B1C3D
:402400000B331B782A4A9B00D3185B88002B04D13B1C1E3313221A8040E03B1C0B331B78234A9B00D3189B885A1E2249131C9B009B189B00CB1808339B68181CFFF79EFC39
:40244000031C1A1C012313409BB2002B05D13B1C1E330422FF321A8020E03B1C0B331B78134A9B00D3185A883B1C10331A813B1C10337A681A603B1C0A331B789AB23B1CC7
:4024800010339A803C1C1E343B1C0C333A1C10321868111C0CF0A2FD031C23803B1C1E331B88181CBD4609B090BDC046D4250020804D0100A849010090B589B000AF3C1CF1
:4024C0000C3420807B603B1C0B3319703B1C0A331A70384B1B78022B05D03B1C1E33832252001A805EE03B1C0B331B78022B04D93B1C1E3301221A8054E03B1C0B331B7863
:40250000002B04D03B1C1E3302221A804AE03B1C0B331B78284A9B00D3189B885A1E2749131C9B009B189B00CB1808339B68181CFFF724FC031C1A1C022313409BB2002B19
:4025400005D13B1C1E33822252001A802AE03B1C0B331B78184A9B00D3185A883B1C10331A813B1C10337A681A603B1C0A331B789AB23B1C10339A803C1C1E343B1C0C33BF
:402580003A1C10321868111C0CF01CFD031C23803B1C1E331B88002B04D13B1C10331A89074B1A803B1C1E331B88181CBD4609B090BDC046D4250020804D0100A849010024
:4025C0005C11002080B584B000AF7860194B1B68002B2BD00E22184B1B889A4226D1164B00221A803A1C08327B68111C1A1C0223081C111C1A1C01F0A2FB3B1C0833002267
:402600009A703B1C083300225A600C4B1B78DBB201229343DAB2094B1A70064B1B68912251003A1C0832081C111C9847BD4604B080BDC046581100205C110020DF2500207C
:4026400090B587B000AF78603B1C173300221A70434B1B68002B00D17BE03B1C08337A6812881A803B1C083300225A603B1C083300229A7068E07B689A893B1C08339B78DB
:4026800038499B00CB189B889A4255D17B681A1D7B683C1C1734101C00211A1C40230DF03FF9031C23703B1C17331B78002B3AD13B1C08339B78012B13D17B685B68181C90
:4026C000FFF75CFB031C1A1C012313409BB2002B03D02423FF333B6116E092235B003B6112E07B685B68181CFFF748FB031C1A1C022313409BB2002B03D090235B003B61F8
:4027000002E02223FF333B61174B1B7802221343DAB2154B1A70124B1B6839693A1C0832081C111C9847114B1B78DBB201229343DAB20E4B1A700CE03B1C08339B780133D4
:40274000DAB23B1C08339A703B1C08339B78012B91D93B1C17331B78181CBD4607B090BD58110020804D0100C4250020DF25002080B500AF00F04EF8BD4680BD80B500AFC5
:40278000054B054A1268802109060A431A6000F017F8BD4680BDC0460000244080B500AF064B1B78002B04D1FFF7E2FF034B01221A70FFF7E3FFBD4680BDC0466011002097
:4027C00080B500AFBD4680BD80B582B000AF7860C046064B1A681F231340082BF9D0044B7A681A60BD4602B080BDC046080224404002244080B582B000AF054B1A681F237C
:4028000013407B607B68181CBD4602B080BDC0460802244080B500AF184B194A1A60194B00221A60184B01221A60184B184A1A60184B07221A60184B00221A60174B012200
:402840001A60174B124A1A60164B00221A60164B04221A60154B00221A60154B00221A60144B00221A60144B00221A60134B00221A60134B00221A60BD4680BD0000244022
:402880000F00000240002440480024400003244007000080040324401003244044002440000224400402244050002440880E2440C80E2440480F2440080F2440C80F244016
:4028C000880F244080B500AF064B1B78002B04D100F00AF8034B01221A7000F0F1F8BD4680BDC0466811002090B585B000AF0F20032100F05BFD584B0F20191C00F030FD88
:40290000564B01221A60564B554A1168554A1268002A01DA544A00E0544A0A431A60544B544A1A60544B554A1A60554B00221A60544B554A1A60554B534A1A60544B544A48
:402940001268802149020A431A60524B00221A60514B00221A60514B01221A60504B1B687B607A684F4B13407B607B688022920513437B607B68012293437B60484B7A6864
:402980001A600023FB6061E08023DA00DC239B0113407B60FB689B00434A9B187A681A608023DA00012313400AD03A4B394A1168FA680120041C9440221C92B20A431A60EF
:4029C0008023DA00022313400AD0334B324A1168FA680120041C9440221C92B20A431A608023DA0080239B00134003D080235B00BB6002E080235B01BB608023DA008023BF
:402A00005B00134005D1294BFA6852000021D15209E0BB68002B00DA01335B1099B2234BFA685200D152BB68214A5343214A9B18181C214901F0E6F8031C9BB219B21F4B16
:402A4000FA689200D150FB680133FB60FB68002B9AD0BD4605B090BD992B000020003A4000003A4080033A40700210537002005304003A40C4000A8018003A400000FF077F
:402A80001C003A4010003A400400040014003A4000033A4028023A4038023A4018023A4030003A40FFFFFFDF80003A40E425002010270000E40C0000C8190000E025002021
:402AC00080B500AF0A4B1B68002B0EDBC046094B1B68002BFBDB064B054A1268802109060A431A600A2000F0E3FCBD4680BDC04600003A4008023A4080B500AF024B012206
:402B00001A60BD4680BDC04624003A4080B584B000AF78600023FB607A680323134011D00B4B1A6801231340FB60FB68002B03D17A6802231340F3D1FB68002B02D0044BB4
:402B400001221A60FB68181CBD4604B080BDC04610023A4080B584B000AF78607B68002B02D0002000F076FC7B68002B08D17B689B00084A9B181B681B041B0CFB6001E0DA
:402B80000023FB60FB689BB21BB2181CBD4604B080BDC04680013A4080B582B000AF044B1B687B60024B7A681A60BD4602B080BD10023A4080B582B000AF094B1B68DAB28E
:402BC000FB1D7F218A431A70054BFA1D12781A60FB1D1B78DB09DBB2181CBD4602B080BD1002044080B584B000AF021CFB1D1A700E4B1B68DAB23B1C0F3340218A431A7032
:402C0000FB1D1B789B01DAB240231340D9B23B1C0F333A1C0F3212780A431A70034B3A1C0F3212781A60BD4604B080BD0003044080B584B000AF021CFB1D1A700D4B1B6818
:402C4000D9B23B1C0F337F220A401A70FB1D1B78DB01D9B23B1C0F333A1C0F3212780A431A70044B3A1C0F3212781A60BD4604B080BDC0460003044080B584B000AF021CB7
:402C8000FB1D1A700E4B1B68DAB23B1C0F3340218A431A70FB1D1B789B01DAB240231340D9B23B1C0F333A1C0F3212780A431A70034B3A1C0F3212781A60BD4604B080BD37
:402CC0000002044080B500AF00F050F8054B181C00F00EF8032000F017F800F03DF8BD4680BDC046E92C000080B500AFBD4680BD80B582B000AF7860024B7A689A64BD4614
:402D000002B080BD0000002090B585B000AF021CFB1D1A701623FB603C1C0B3400F09DF8031C23700A4B0A4A11680A4A1140FA1D1078FA68041C9440221C0A431A603B1C21
:402D40000B331B78181C00F08CF8BD4605B090BD00E400E0FFFF3FFF80B500AF024B04221A60BD4680BDC04600E100E080B500AF024B04221A60BD4680BDC04680E100E0A5
:402D800080B500AF024B04221A60BD4680BDC04680E200E080B582B000AF786000F04AF87B68181C00F008F8032000F011F800F037F8BD4602B080BD80B582B000AF786078
:402DC000024B7A681A66BD4602B080BD0000002090B585B000AF021CFB1D1A700623FB603C1C0B3400F039F8031C23700B4B0B4A1268C021101C8843011CFA1D1078FA6820
:402E0000041C9440221C0A431A603B1C0B331B78181C00F026F8BD4605B090BD08E400E080B500AF024B802252001A60BD4680BD00E100E080B500AF024B802252001A601F
:402E4000BD4680BD80E100E00230800803D00138FDD1C046C046C0467047EFF3108072B6704780F31088704780B500AF0B4B0B4A126801218A431A60094B094A126830217D
:402E80008A4310210A431A60054B054A126807218A4301210A431A60BD4680BD00F02E4000FF2E4080B500AF0E4B0E4A126802218A431A600C4B0C4A126807218A43022193
:402EC0000A431A60084B084A126830218A4320210A431A60034B034A126801210A431A60BD4680BD00F02E4000FF2E4090B585B000AF78603C1C0F34FFF7AFFF031C2370CB
:402F0000094B796807220A40D104074A1068074A02400A431A603B1C0F331B78181CFFF7A0FFBD4605B090BD00010B40FFFFC7FF80B584B000AF78600023FB60154B154ABA
:402F4000126801210A431A60134B144A1A60144B134A1268802109020A431A607B68002B13D01023FB600DE0012000F0A1FA00F019F8031C002B02D00023FB6005E07B6894
:402F8000013B7B607B68002BEED1FB68181CBD4604B080BD60F02E4078002E400220000010002E4080B500AF034B1A6801231340181CBD4680BDC0460C002E4080B500AF5B
:402FC000FFF752FF044B044A1268802109060A431A60BD4680BDC04600F02E4080B584B000AF78600C4B1A6801231340FB607B68002B02D0012B03D005E0FFF735FF06E0E9
:40300000FFF750FF03E0002000F024FAC046FB68181CBD4604B080BD00F02E4090B583B000AFFC1DFFF719FF031C2370074B074A1268C02109020A431A60FB1D1B78181C9C
:40304000FFF70FFFBD4603B090BDC04600010B4080B500AF054B1A68C0231B02134001D0012300E00023181CBD4680BD00010B4090B583B000AFFC1DFFF7EFFE031C237061
:403080000C4B0C4A11680C4A0A408021C9010A431A60084B074A1168074A0A40802109020A431A60FB1D1B78181CFFF7DAFEBD4603B090BD00010B40FF3FFFFF80B582B04E
:4030C00000AF78607B68022B02D9002000F0C2F9054B1A687B68DB000133DA4001231340181CBD4602B080BD10020B4080B584B000AF786039607B68022B02D9002000F037
:40310000A9F97B68181CFFF7D9FF031C002B18D10D4B1B687A68D2000321081C9040021CD2431340FB603A6803231A407B68DB00111C99400B1CFA681343FB60024BFA687E
:403140001A60BD4604B080BD0C020B4080B584B000AF786039607B68002B02D07B68012B01D1012300E00023002B02D1002000F071F97B68181CFFF7A1FF031C002B18D1BF
:403180000D4B1B687A68D20002320121081C9040021CD2431340FB607B68DB0002333A68111C99400B1CFA681343FB60024BFA681A60BD4604B080BD0C020B4080B582B0A3
:4031C00000AF7860154B154A11687A680A431A607A680123134006D0C0460020FFF76EFF031C002BF9D07A6880235B00134006D0C0460120FFF762FF031C002BF9D07A6820
:4032000080235B02134006D0C0460220FFF756FF031C002BF9D0BD4602B080BD10020B4080B584B000AF786039607B68002B02D07B68012B01D1012300E00023002B02D121
:40324000002000F007F9174B1B689B0F9B0701D1C92300E05D23181C00F02AF9124B1B68FB607B681B01114A111C99400B1CDA43FB681340FB600C4B7A68120139689140FA
:40328000FA680A431A60074B1B689B0F9B0701D1432300E01F23181C00F00AF9BD4604B080BDC0460C020B4008020B40FFFF000080B500AF034B1A68034B1340181CBD4611
:4032C00080BDC04610020B400404040090B585B000AF78603C1C0B34FFF7BFFD031C2370FFF7B6FE031C002B04D00123FB60FFF7BFFE01E00023FB607A680C4B13407B6066
:403300000B4B0B4A11680B4A11407A680A431A60FB68012B01D1FFF781FE3B1C0B331B78181CFFF79EFDBD4605B090BD0404040010020B40FBFBFBFF80B582B000AF78600B
:40334000054B054A11687868044A02400A431A60BD4602B080BDC04610020B400808080080B584B000AF021C3960FB1D1A7080239B05FB60FB1D1B781F2B02D9002000F0A2
:4033800069F8FB1D1B7810339B00FA68D3181B68BB60FB1D1B7810339B00FA68D3183A681A60BB68181CBD4604B080BD90B587B000AF0A1CFB1D011C1970BB1D1A70BB1DB2
:4033C0001B78032B02D9002000F044F8FB1D1B781F2B02D9002000F03DF8FB1D1A7803231340DB0006337B613C1C1334FFF735FD031C2370FB1D1B789B08DBB29B00144971
:403400005B181B68FB607B690322111C99400B1CDA43FB681340FB60BB1D1A787B69111C99400B1CFA681343FB60FB1D1B789B08DBB29B00064A9B18FA681A603B1C133357
:403440001B78181CFFF70DFDBD4607B090BDC04600E400E080B582B000AF021CFB1D1A7001BEBD4602B080BD80B582B000AF786008E00C4B1B68181CFFF7E6FC7B680A4A3A
:403480009B187B607A6880231B029A42F1D8074B1B687A685343181CFFF7D6FCBD4602B080BDC046FC0100200080FFFFF401002080B582B000AF021CBB1D1A80BB1D1B8825
:4034C000044A12785343181CFFF7BEFCBD4602B080BDC046F801002090B583B000AFFC1DFFF7BBFC031C2370074B074A126804218A431A6030BFFB1D1B78181CFFF7B1FCD0
:40350000BD4603B090BDC04610ED00E090B583B000AFFC1DFFF7A1FC031C2370114B114A1268520052081A600F4B104A128892B21A600F4B0E4A126804210A431A600D4B4D
:403540001B683B600220FFF7D1FC30BF094B3A681A60FB1D1B78181CFFF783FCBD4603B090BDC04600000B400C000B4052F1FF0F10ED00E000010B4090B583B000AFFC1D30
:40358000FFF76BFC031C2370114B114A1268802109060A431A600F4B0F4A128892B21A600E4B0E4A126804210A431A600C4B0C4A1268FF218A43F1210A431A6030BFFB1D3E
:4035C0001B78181CFFF74DFCBD4603B090BDC04600000B400C000B4050F1FF0F10ED00E02C000B4080B5ACB000AFF860B960BB1D1A800023A420C01903600023A021C9196B
:403600000B60BB689422D2191360BB1D1A889420C0190368D218594B9A4200D994E09421C9190B68DB09AC22D2191360AC20C0190368DB019C21C9190B6077E0002398227B
:40364000D21913600023A820C019036050E09C21C9190A689420C01903689A422ED3BB1D1A88A421C9190B689A4227D93A1C1432A820C0190368D3181A78F968A420C0191C
:403680000368CB181B789A4210D0FA68A421C9190B68D3181A78391C1431A820C0190368CB181A7001239821C9190B60A422D21913680133A420C01903600BE09C21C9194D
:4036C0000B681B78DAB2391C1431A820C0190368CB181A709C21C9190B6801339C22D2191360A820C01903680133A821C9190B60A822D21913687F2BA9D99820C019036815
:40370000002B0CD0AC21C9190A683B1C1433101C191C00F0DFF8031CA022D2191360AC20C01903680133AC21C9190B60BB1D1A88A420C01903689A420AD9A021C9190B68A7
:40374000002B00D17AE703E00123A022D2191360A020C0190368002B09D0A021C9190B68012B04D001235B42A022D2191360A020C0190368181CBD462CB080BDFFFF010073
:4037800080B582B000AF78600A1CBB1C1A80BB1C1A887B681A60BD4602B080BD80B582B000AF78600A1CBB1C1A80BB1C1A887B681A60BD4602B080BD80B582B000AF021C3B
:4037C000BB1D1A80BB1D1B88181CFFF771FEBD4602B080BD80B500AF00F068F8BD4680BD80B500AF00F06CF8BD4680BD80B500AF00F066F8044B181C00F024F8032000F091
:403800002DF8BD4680BDC0465D3B000080B500AF024B181C00F004F8BD4680BD5D3B000080B582B000AF786000F04AF87B68181C00F008F8032000F011F800F037F8BD46F7
:4038400002B080BD80B582B000AF7860024B7A681A67BD4602B080BD0000002090B585B000AF021CFB1D1A700623FB603C1C0B34FFF7F3FA031C23700B4B0B4A1268C0210A
:40388000101C8843011CFA1D1078FA68041C9440221C0A431A603B1C0B331B78181CFFF7E0FABD4605B090BD0CE400E080B500AF024B802252011A60BD4680BD00E100E058
:4038C00080B500AF024B802252011A60BD4680BD80E100E090B5A9B000AF7860396000239822D219136000239422D21913607A684D4B9A4200D98CE03B68002B00D188E0D5
:403900007A684A4B9A4201D9494A00E0494A3B1C0C331A603B1C0C337F225A603B1C0C331A1C08323B68101C191C802200F007FA414B3A1C0C321A60404B414A1A603E4B03
:403940001B681B0F1A07A0231B069A4204D03A4B1A680F23134000E000239822D21913609822D2191368002B52D13C1C9F34FFF774FA031C237000F069F8031C9422D2197E
:4039800013609422D2191368002B05D100F08EF8031C9822D21913609822D2191368002B24D13B1C0C33274A1A603B1C0C331A687B681B041A433B1C0C331A601E4B3A1CC3
:4039C0000C321A601D4B204A1A601B4B1B681B0F1A07A0231B069A4204D0174B1A680F23134000E000239822D21913609422D2191368002B05D100F081F8031C9422D21931
:403A000013603B1C9F331B78181CFFF72AFA04E003E004239822D21913609822D2191368181CBD4629B090BDFF030000FF010000B6D70001B6D700000800104004001040BD
:403A400004000080B6D800000500008080B584B000AF0023FB603B1D0F4A1A600F4A3B1D5A600F4B3A1D1A600E4B0F4A1A600C4B1B681B0F1A07A0231B069A4204D0084B20
:403A80001A680F23134000E00023FB60FB68181CBD4604B080BDC046B6E90000A825002008001040040010401600008080B582B000AF00237B600D4B0D4A1A600D4B0E4A55
:403AC0001A600A4B1B681B0F1A07A0231B069A4204D0064B1A680F23134000E000237B607B68181CBD4602B080BDC04608001040B6E80000040010401500008080B584B008
:403B000000AF0023FB603B1D0F4A1A600F4A3B1D5A600F4B3A1D1A600E4B0F4A1A600C4B1B681B0F1A07A0231B069A4204D0084B1A680F23134000E00023FB60FB68181C63
:403B4000BD4604B080BDC046B6EA0000A825002008001040040010401700008080B500AF10F09AFABD4680BD002934D00123002210B488422CD301242407A14204D28142F7
:403B800002D209011B01F8E7E400A14204D2814202D249005B00F8E7884201D3401A1A434C08A04202D3001B5C0822438C08A04202D3001B9C082243CC08A04202D3001B1C
:403BC000DC082243002803D01B0901D00909E3E7101C10BC7047002801D00020C04307B4024802A14018029003BDC046D90000000029F0D003B5FFF7B9FF0EBC4243891A73
:403C00001847C046002941D010B4041C4C40A44601230022002900D54942002800D5404288422CD301242407A14204D2814202D209011B01F8E7E400A14204D2814202D29B
:403C400049005B00F8E7884201D3401A1A434C08A04202D3001B5C0822438C08A04202D3001B9C082243CC08A04202D3001BDC082243002803D01B0901D00909E3E7101C27
:403C80006446002C00D5404210BC7047002806D003DB0020C043400801E08020000607B4024802A14018029003BDC046190000000029EBD003B5FFF7A7FF0EBC4243891AEB
:403CC0001847C0467047C046014B18687047C0468C04002070B50E4B0E4D0024ED1AAD101E1CAC4204D0A300F35898470134F8E711F09CF8084B094D0024ED1AAD101E1C6B
:403D0000AC4204D0A300F35898470134F8E770BD384E0100384E0100384E0100404E010030B50023934208D0C55C0133CC18013C2478A542F6D0281B00E0002030BD10B526
:403D40000023934203D0CC5CC4540133F9E710BD031C8218934202D019700133FAE770470FB40B4B13B51C68002C05D0A369002B02D1201C00F008FD05ABA168201C049A6E
:403D8000019300F09BF816BC08BC04B01847C0468C04002070B5051C0E1C002804D08269002A01D100F0F0FCAC68A3891A0702D52369002B19D1281C211C00F069FB002888
:403DC00013D00120404245E03178002B1BDAA269934211DA281C221C00F002FB013043425841C0B20028ECD10136A3683278013BA360002AE8D10CE0236819702368197845
:403E00000A2903D1E6E722681170236801332360EAE7002B17DAA269934208DB22680A231370236819780A2911D1281C01E0281C0A21221C00F0D4FA013043425841C0B2F5
:403E4000002806D0BDE722680A2313702368013323600A2070BD000008B5034B011C1868FFF798FF08BDC0468C040020936810B5013B9360002B05DA9469A34208DBCBB2E2
:403E80000A2B05D01368581C10601970C8B201E000F0A6FA10BDF8B5061C0F1C141CD518AC4208D02178301C3A1CFFF7DFFF0134431CF5D100E00020F8BD0000F0B59FB069
:403EC000061C0F1C03920593002804D08169002901D100F059FC754B9F4201D1776808E0734B9F4201D1B76803E0724B9F4200D1F768BB891A070AD53B69002B07D006AD0A
:403F000000236B6120236B763023AB763BE0301C391C00F0BDFA0028F1D001204042C2E0059A111D12680591002A76DB0992013423782E2B00D181E021785F48032200F0C6
:403F4000E3FC002807D05C492A68431A402098401043286001342178631C584806220393297600F0D1FC002800D18AE0544B002B7ED1059B072207339343083305936A69BA
:403F8000049953186B61039C2378002B04D10399611A029110D003E0252BF8D00134F3E7301C391C039A029BFFF775FF013075D06A69029953186B612378002B6ED00122D8
:403FC00052426A606A4600235B3201342B60EB60AB601370AB6521783A48052200F094FC002808D0374A0134831A012098402B6818432860EFE72B68D90603D56A462021C5
:404000005B3211701A0703D56A462B215B32117022782A2A84D0099B05E05242EA60022213432B6083E72278303A092A04D80A214B4301349B18F6E7099379E763782A2B9A
:4040400009D1059B02341A1D1B680592002B0DDA01235B420AE0013400232278303A092A04D80A214B4301349B18F6E7079363E705AB0093301C291C3A1C134B00E000BF8E
:4040800007E005AB0093301C291C3A1C0E4B00F091F804900499013100D070E7BB895A0600D53AE70B981FB0F0BDC046CC4D0100EC4D01000C4E01009E4D0100A24D010049
:4040C00000000000984D0100973E0000F7B5151C01930A698B68061C0C1C934200DA131C221C2B6043321278002A01D001332B602068800602D52B6802332B602168062796
:404100000F401FD0231C43331B785A1E9341226892061FD5E11840313020C870211C5A1C45310978A21840320233D17012E0221C301C019919320123089FB847013011D01C
:40414000009F01370097E0682968009F431A9F42EDDBD7E7221C301C01994332089FB847013002D10120404223E0206806212B68E26801400025042903D1D51AEB43DB17AA
:404180001D40A26823699A4201DDD31AED1800270097009FAF420BDA221C301C01991A320123089FB8470130DCD0009F0137EFE70020FEBDF0B50D1C8BB0433506920590E0
:4041C000079304950B7E0C1C109A6E2B00D1A7E011D8632B22D009D8002B00D1B0E0582B00D0C0E045310B707B4D4EE0642B1CD0692B1AD0B7E0732B00D1A5E009D86F2B91
:4042000029D0702B00D0AEE00E68202333430B6036E0752B1FD0782B32D0A4E013680D1C191D423511601B689FE0216813680E0603D5191D11601E6805E04806F9D5191D0C
:40424000116000215E5E644B002E3BDA049D2D2276422A7036E0216813680E0603D5191D11601E6804E04806F9D5191D1E881160594B227E039308276F2A1ED00A271CE07F
:40428000231C78214533554D197011682368081D039510601E0601D50E6802E05806FBD50E88D90702D52022134323601027002E03D1226820239A432260231C002243332E
:4042C0001A7001E003930A276368A360002B03DB2568042295432560002E02D1049D002B0ED0049D301C391CFFF782FC0398013D435C301C2B70391CFFF736FC061EF1D182
:40430000082F09D12168C90706D5626823699A4202DC013D30232B70049E731B23612AE0086813684969050604D5181D10601B68196005E04606F8D5181D10601B6819805D
:4043400000232361049D16E01368191D11601D68281C00F0DFFB63682061984200D923612069606004E0251C42352B7001232361049E00233370079E05980096211C09AA6F
:40438000069BFFF7A3FE013002D10120404221E02A1C059806992369079DA8470130F4D02668B60705D4099BE068984212DA181C10E00025E0680999431A9D42F3DA221C37
:4043C0000598069919320123079EB0470130DCD00135EFE70BB0F0BDA94D0100BA4D010070B5051C0E1C141C002804D08269002A01D100F0C9F9234B9C4201D16C6808E017
:40440000214B9C4201D1AC6803E0204B9C4200D1EC68A369A360A3891A070AD52369002B07D022682369F6B2D01A626990420FDB08E0281C211C00F02BF80028F1D001207D
:4044400040421DE0281C211C00F01EF90028F6D1A3680130013BA36023685A1C22601E706369984205D0A389301CDA0708D50A2E06D1281C211C00F007F90028DFD1301C65
:4044800070BDC046CC4D0100EC4D01000C4E0100344B70B51D68061C0C1C002D05D0A969002902D1281C00F06FF92F4B9C4201D16C6808E02D4B9C4201D1AC6803E02C4B7F
:4044C0009C4200D1EC68A28993B2190721D4D90605D40923336040231A43A2813FE05A0713D5616B002908D0231C4433994202D0301C00F015FA00236363A38924229343C6
:40450000A3810023636023692360A38908221343A381216900290BD1A389A02292001A4080239B009A4203D0301C211C00F09CF9A38901221A4005D061690022A2604A4236
:40454000A26103E0990700D46269A26022690020824206D1190604D540221343A3810120404270BD8C040020CC4D0100EC4D01000C4E0100F7B58B89051C0C1C19075ED470
:404580006268002A02DC276C002F1ADDE76A002F17D000222E682A60802252011A4001D0626D15E0281C216A0123B847021C411C0ED12B68002B0BD01D2B01D0162B02D1D1
:4045C0002E6000205EE0A38940210B43A38159E0A3895F0706D56168636B521A002B01D0276CD21B281C216A0023E76AB847A289411C06D12B68002B03D01D2B01D0162B1F
:4046000019D10023636023692360D70405D5411C02D12A68002A00D16065616B2E600029CFD0231C4433994202D0281C00F078F90020606326E040231A43A28122E02669DD
:40464000002EBED027680022BF1B01972660990700D16269A260019F002FB2DD281C216A321C019BA76AB847002806DCA389402213430120A381404204E0019F36183F1A90
:404680000197E8E7FEBD00000A6938B5051C0C1C002A01D100201CE0002804D08369002B01D100F071F80B4B9C4201D16C6808E0094B9C4201D1AC6803E0084B9C4200D11A
:4046C000EC680C22A35E002BE4D0281C211CFFF751FF38BDCC4D0100EC4D01000C4E0100F8B5041C071C4834002C12D0A5686668013E0CD4AB89012B07D90E22AB5E0133CC
:4047000003D0381C291CFFF7BFFF6835F0E72468EAE7F8BD002310B5041C03604360836081814366C281036143618361191C08225C30FFF70DFB054B24626362044BA36230
:40474000044BE362044B236310BDC0467D4A0000A54A0000DD4A0000094B000070B54B1E68255D430E1C291C743100F021F9041E08D00021016046602A1C0C30A0606832B5
:40478000FFF7E6FA201C70BD836913B5041C002B27D18364C3640365124B134A1B688262984201D101238361201C00F01FF86060201C00F01BF8A060201C00F017F80421D6
:4047C000E06000226068FFF7A5FFA06809210122FFF7A0FFE06812210222FFF79BFF0123A36113BD944D0100E1460000F8B51D4B071C1E68B269002A02D1301CFFF7C4FF00
:404800004836B4687368013B05D40C22A55E002D10D06834F7E73368002B06D1381C0421FFF79CFF3060002801D03668E9E70C233B6016E001235B42E381201C0123A3812F
:4048400065662560A560656025616561A5615C30291C0822FFF77CFA6563A563A564E564201CF8BD944D0100F0B58B8991B0051C0C1C9A0725D40E23C95E002906DAA78902
:4048800080231F400FD0002740260EE001AA00F06FF90028F3DB029BF0273F02184A1F40BF187B425F418026F600281C311C00F07FF800280CD1A3899A051FD402221343E8
:4048C000A381231C4733236023610123636115E00C4B8022AB62A38920601343A38120616661002F0AD00E23E15E281C00F052F9002803D0A38901221343A38111B0F0BD59
:4049000000E0FFFFE1460000C9B28218904204D003788B4202D00130F8E700207047000030B5002940D004390B68002B00DAC9181E4A1368141C002B02D14B60116033E0C2
:4049400099420FD208680A189A4205D113685268C01808604A6000E04B60216024E08A4203D8131C5A68002AF9D11D685C198C420BD10968691858181960904214D11468CA
:404980005268091919605A600EE08C4202D90C23036009E008680C18944203D114685268001908604A60596030BDC046BC25002070B50323CD1C9D430835061C0C2D01D20B
:4049C0000C2501E0002D3FDB8D423DD3204B1C681A1C211C002913D00868431B0DD40B2B02D90B60CC181EE08C4202D1636813601AE0486860600C1C16E00C1C4968E9E7F4
:404A0000144C2068002803D1301C00F025F82060301C291C00F020F8431C15D0C41C03239C4384420AD12560201C0B300722231D9043C31A0BD05A42E25008E0211A301C29
:404A400000F00AF80130EED10C233360002070BDBC250020B825002038B5074C0023051C081C2360FCF754FD431C03D12368002B00D02B6038BDC046E825002038B50C1C57
:404A80000E25495F00F0ACF8002803DB626D1318636503E0A289024B1340A38138BDC046FFEFFFFFF8B51E1C8B89051C0C1C171CDA0505D50E23C95E0022022300F07CF8D3
:404AC000A289054B281C1340A3810E22A15E331C3A1C00F027F8F8BDFFEFFFFF38B50C1C0E25495F00F068F8A389421C03D1054A1340A38104E0802252011343A381606580
:404B000038BDC046FFEFFFFF08B50E23C95E00F01DF808BD0023C25C0133002AFBD1581E7047000038B5084C051C00202060081C111C1A1CFBF76EFD431C03D12368002B48
:404B400000D02B6038BDC046E825002038B5074C0023051C081C236000F056F8431C03D12368002B00D02B6038BDC046E825002038B5074C0023051C081C111C236000F095
:404B80004BF8431C03D12368002B00D02B6038BDE825002038B5074C0023051C081C236000F042F8431C03D12368002B00D02B6038BDC046E825002038B5084C051C002009
:404BC0002060081C111C1A1C00F036F8431C03D12368002B00D02B6038BDC046E825002038B5084C051C00202060081C111C1A1C00F02AF8431C03D12368002B00D02B6045
:404C000038BDC046E8250020024B5822012040421A607047E8250020024B5822012040421A607047E8250020024B582200201A607047C046E8250020024B58220120404207
:404C40001A607047E8250020024B5822012040421A607047E825002010B501F06BFA10BD10B501F07DFA10BD10B501F081FA10BD10B500F0DBF810BD10B5074904460978F9
:404C80000220002907D1204601F0A2FA002802D1204608F0FFFF10BD12030020F7B51F4E0024307815460F46002804D00824B76075802046FEBD002F00D1012401F050FA3B
:404CC0000098002805D0172D03D301204002854201D90124EBE7002CE9D12946384600F023F80400E3D1706800F01CF80400DED1706800F015F80400D9D101F04BFA040028
:404D0000D5D1009806F064FB0400D0D106F076FB0400CCD101203070C9E70000000200200020704700207047F8B50D4607460026FEF76CFDFEF754FD00F02EFA040065D189
:404D400000F0B8FB040061D13449084600F0D4FD0404240C5AD1A80705D0A807800F0421081A401985B2172D02D968002E3886B22B48301881B2384601F0C0F8040045D17E
:404D8000284F03460246002825D127495E008E5B294610318E4207D99000C01941800221521C4170D2B215E08E420BD10020787690001D49C0194680891FC95C891C41705F
:404DC000012012E0052A06D1164806461436418302207071012014495E008E5B9100C9194E80114EB61FF65C4E705B1C521CDBB2D2B2062BC7D30B4800F06CF8002C05D12B
:404E000000F084F807490120891E087000F0D6F9002C01D0FF20F8BD0020F8BD414E0000940C00000E020020864E010010B503480078012801D100F0F1FE10BD0C02002080
:404E40007047000010B5011F0878034A8000105800F0F4FF10BD00006C11002010B5044604498000085800F057FF002801D00470001D10BD6C11002038B5044692B2C9B228
:404E8000684600F06FFF024AA1000098505038BD6C11002070B50B49064600204C6805466178002908D06188B14202D32078FFF7D5FF002804D1241D6D1CEDB2082DEFD301
:404EC00070BD00003002002010B5002801D0FFF7B9FF10BD70B50B4E0446002570606178002905D062882078121D0023FFF7C4FF6D1C241DEDB2082DF1D3024800F0F0FF4E
:404F0000B06070BD30020020002070471CB5002469460C70142001902346054A05480CF071FC04480068401C00D1FF2420461CBD894F00003C0200203EB5124A0146FF208A
:404F400000230124126800290DD0012914D0042908D104206946009308814B8110460CF04CFC80B23EBD6846009304814381694610460CF03DFCF4E76846009304814381AA
:404F80006946EBE73C02002070B54589046841680089030000F026F806240408081D2124002005F0EBF91BE0022908D0C8B22A4621460AF013FF2046FFF786FF10E0022089
:404FC0002A4621460AF00AFF2946204600F018F806E000200CF00AF902E020460CF098FC002070BD30B47446641E2578641CAB4200D21D46635D5B00E31830BC1847000018
:40500000014B0022DB6818474002002070B5448905680089022803D0032809D0FF2070BD2246094C0023A46829460120A04708E0FFF716FE241DA2B200232946022006F035
:40504000AAF8002070BD000040020020704700000248002141600180418070474002002070B50C46002186B016460391012802D0022859D116E003A9012006F0E4F80128F6
:405080001BD1039D324621462846FEF758FE0095287801900220694608814E816846FFF7B5FF41E0214D002B686809D0049004A9022006F0C8F801281DD0022006B070BDEE
:4050C000002812D0298840182146FEF738FE28880024801980B228806988091D884206D12C801348FFF792FF03E00320E6E788421AD96C6018E004986860E278A37811023E
:4051000019430B4A698000231060E3565360032313815181A1788170E178C1706178417021780170042028800020C7E7400200208C1100203EB515460C46022803D0042820
:405140000CD000203EBD0091019002206946088107484A8100680CF050FB07E00AF03EFE044B0022DB6829462046984701203EBD3C02002040020020014AD160906070476F
:4051800040020020034801688068081A0A214843000970479811002010B5FEF727FB542204490548FEF7CBFD03490120C870002010BD0000964E0100E813002010B5FEF79B
:4051C00009FB10BD70B5134C2368002B08D0207B1149C20705D04008400020738868A08070BD88680B4AA18880B29268814203D90A4D691A091802E0814202D2411A511870
:40520000A160A080A0689842EAD300F015F80CF011FB70BD98110020C0102E40FFFF000010B508461946FFF7A7FF10BD704710B5FFF780FF10BD0000034800210160416070
:405240008160C160704700009811002010B502000DD0FFF7F1FF074C0321207B0843207310010A21FEF7C4FC2060002010BDFF2010BD00009811002000B504480A2180680B
:4052800048430209FFF7D8FF104600BD981100200248007B8007C00F704700009811002070B558490868002802DA574B01221A70022290430860554800695249C00B40314F
:4052C000096A08426CD0012000F0C2FA4F4850497C30FEF763FA4B480E216C30FEF75EFA4A4820218430FEF759FA484814219C30FEF754FA4548FF21C131A430FEF74EFABC
:405300004248FF212F31B030FEF748FA3F484149BC30FEF743FA3D483F49AC30FEF73EFA3D493A48491CB430FEF738FA37483B49B830FEF733FA35483949CC30FEF72EFA6A
:40534000324838490830FEF729FA30483649A830FEF724FA2D4835498830FEF71FFA2B4833498C30FEF71AFA28481921C9029030FEF714FA2F4D287E697E0C020443A87FD6
:40538000E97F2D4A090201432C48914201D1072C08D035229201914208D1042C05D005E0FF2070BD0146042400E0014617486C30FEF7F4F9154821467430FEF7EFF9A87EF1
:4053C000E97E0902014301204003814201D0002900D11B490D487830FEF7E0F92A7F687F010218481143814204D01748814201D0052901D113490A3904488030FEF7CEF9AE
:40540000002070BD00F02E405002002000002E4055650000320300002F3F00003102000010520000EC160000FA12000031D000003AE30000C0F0FF0F580B0000580D00003D
:40544000022000000F0F00000505000070B50646581C80B245086D00002408E0304600F07FF81055000A1119A41C4870A4B2AC42F4D3D80705D0D0182038D15CC47FD45480
:40548000C17770BD30B50A4C002100195B1E07E0541864782502545C2C430480891C89B29942F5DB994201D1515C018030BD000000102E4010B5FF2000F0CAF90F49FF20C1
:4054C00048700E481021801D41800121417001700A490020C91C4870FFF7E2FE04000AD100F0DEF807210648FEF74AF9044807211830FEF745F9204610BD000050020020FE
:40550000CC112E4030B504465B1C1804450C002308E0204600F024F8241D59005B1CA4B250529BB2AB42F4D330BD000070B500210A4D5B1E0AE0541864782602545C344302
:4055400046193480001D891C80B289B29942F2DB994202D1515C4019018070BD00102E40014940180088704700102E40014A80180180704700102E4010B50B490020487078
:4055800000F08EF8002000F089F9002000F076F907210648FEF7F4F8044807211830FEF7EFF8002010BD000053020020CC112E4010B506480078012803D102210448FEF7DC
:4055C000EDF802490020C91E087010BD5302002070F02E4010B50B46062812D006DC01280CD0032801D1FFF7C7FF10BD0A28FCD00B28FAD105480078107010BDFFF75AFFFC
:4056000010BD1146184600F065F910BD56020020F8B5204DAC6A0127A0071F4E002816DA307806280ED1286A384328621B480069F903084381B219481030FEF7AFF80420DE
:4056400000F006F9134802212830FEF799F8E00711D0062000F0FCF80F49FF20C91E48707078002802D1686B38436863094801212830FEF785F8E0050BD53078042802D152
:40568000052000F0E5F80348FF2101312830FEF777F8F8BD40F02E405302002000002E4010B503212348FEF779F80120FEF784F820483038406A204C80076178800F8900BF
:4056C00001431C480C38FEF769F86078002808D0401E022181401820FEF7EAFAC000083800E0B82081B21548FEF758F81348032109021438FEF752F810481149B830FEF70C
:405700004DF8452189010F48FEF748F80D480321001FFEF743F80C490C48FEF73FF80B480B496038FEF73AF8084801218838FEF735F810BD70F02E4056020020D8102E40E8
:4057400090890000041E2E40FF0F000058122E4020900000044800684007400F022801D0002070470120704700010B4000B5FFF7F1FF002805D009480168C908C90001605D
:4057800000BD0748016A490849000162054801690122D2039143016100BD000000010B4040F02E4000002E400849087806280BD148780749002803D1486B400840004863AE
:4057C000C86A01221043C862704700005302002040F02E4001480078704700005302002002484078022800D0012070475002002000B50300FFF7F6FB080D050D0B070507F6
:40580000090D012000BD032000BD042000BD022000BDFF2000BD0000074A9168D26889B2064B92B2994204D105498A4201D1012100E000210170704780002E4033D00000CC
:405840003FE3000001494870704700005302002010B50446FDF7C4FF072C01D9FF2C01D102480470FDF7B6FF10BD00005302002001494870704700005002002010B5064A1F
:40588000012805D01921C9021046FDF787FF10BD1D21C902F8E7000090002E4010B50A4A141D012808D009491046FDF777FF08492046FDF773FF10BD04491046891CFDF7DF
:4058C0006DFF0349491DF3E788002E4031D000003AE300000078074AFF2803D04C2804D9553803E01078087070474F3808701070704700005202002010B50F4A0023136003
:405900000E4A13600E4B18600E4801600E49012008600E490860000290600E490C4808600D4914300860FF381538506000F0BCF800F0CAF9002010BD740200205C020020E2
:40594000880200208C0200207802002068020020A81200206C02002080020020014610B50020002910D0094B1A689C685118A14209D25868196080188A0704D08A07920F03
:40598000891A091D196010BD002010BD5C020020F8B50024164E671E321F3D463168136806E01422624310328A58521C1BD0641C9C42F6D36A1C14D02C4614225443224655
:4059C0000C3288500C214843FFF7C8FF3168002808510AD031680020103408517068401C70602846F8BD2546E4E73846F8BD00006C020020F3B50026F64381B000281BDB5E
:405A00001E490968884217D80299002914D01B4F142204463F1D54432546396810354859401C09D0FDF7DCFE38682F1F4159C359994203DBFDF7CEFE3046FEBD214608316D
:405A40000091465801590C20704308180C220299FEF775F90948761C001D0068C159B14200D100260549009A091D865008684159491C4151FDF7AEFE0020FEBD680200201C
:405A8000002803DB07490968884202D90020C043704704491422091D09685043103008587047000068020020F0B500200D4A451E0346171F50600FE01426014671431468C4
:405AC0000E1DA3510C461668083433511668083435511468401C635039688842ECD30020F0BD00006C020020F3B50026F64381B0002841DB2349096888423DD802990029AB
:405B00003AD0204F142204463F1D54432546396810354859401C2FD0FDF762FE3868415900292BD0211D009146580C21005971430F46C1190C220298FEF701F91148002173
:405B4000001D0068761C00590C34C0190160416081600C48001D00680159B14200D100260849009A091D865008684159491E4151FDF730FE0020FEBD3046FEBDFDF72AFE68
:405B8000FAE7000068020020FEB504460D4600201E49089E0860471E009001900290002C11D0486885420ED2002A0CD0002E0AD0642E08D808460C3001681C2068430C189B
:405BC000207A002801D03846FEBD0120226020721846FFF7DDFE6060401C13D06681A6810A4827610C3067610179A94200D205710021684601810A462846029B00F040F809
:405C00002846FEBD00202072DDE700007402002038B50124009400F039F838BDFEB50027164EFF433D4600240EE01C20316860430818017A002906D04068FFF721FF002866
:405C400001D0254603E0641C3079A042EDDA681C12D01C2130684D434419FDF7C1FD69466068FFF741FF0546FDF7B4FD002DD9D1216868468847D5E7FEBD000080020020C6
:405C800038B50024009400F001F838BD1FB500220C49541E0A60002811DB496888420ED808491C220C31096850430818406801A9FFF7A0FE401C02D0002004B010BD2046BA
:405CC000FBE7000074020020F0B50021114A4D1E174611710C3F0B46BD6016E008461C2460431668041D355114680646235014680836A3551468361DA353044616680A3404
:405D0000335318301468491C255078688142E5D30020F0BD8002002038B500210091002811DB0F49097888420DDA0D4D04010C3529680859002807D0201D0818694600F0AB
:405D40005FF9002801D0002038BDFDF749FD28680F34015D491E0155FDF73CFD009838BD90020020F7B582B00025ED43029800240E460560002A49D0002E47D02D48D21C94
:405D800002402D48174601780C30006805E022018258002A0FD0641CE4B28C42F7D3691C3ED02C01211D40180191314600F016F900282BD101E02546F1E71F480C30016867
:405DC00020460C300F521C480C30016820460E300E5419480C30016820460F300E543846704300F0ADF814490C310968002808510CD00024009011E00F480C30016801981C
:405E00000818009900F017F9002802D0012005B0F0BD0098C019641CE4B20090B442EBD30298054905600C310879401C08710020EDE70000FCFF000090020020F8B50D46E0
:405E400000216A468C461180002839DB23490978884235DA214B04010C3319680A59002A2ED020460C300B5A801C0E5C184670438018954224D3854222D2002006E007469E
:405E80005F43BF18AF4206D0401CC0B2B042F6D36046002814D0114E271DC8190C366A46294600F0F2F800280AD168460088012808D030682946C01900F0BDF8002803D0EE
:405EC0000120F8BD0020F8BDFDF78AFC30680F34015D491C0155FDF77DFCF3E79002002003460020002B06D0034A5168906852884018511A198070479002002070B5002440
:405F000000F0DCF80D4E002132460C3271600EE0200113680546195013680C355953AD1C13680F3059551368641C1954E4B230788442EDD31171002070BD00009002002016
:405F4000014610B5002000290CD0C91C064B8A08596892005C888A18A24202D898685A60401810BD002010BD90020020F8B5002827DB19490978884223DA174C05010C34E9
:405F80002168485900281CD028460C30085A009028460E300E5C401C0E5420682F1DC01900F064F800280CD12068002445590EE0094829460C300068C01900F03CF8002874
:405FC00001D00120F8BD00982D18641CE4B2B442EED30020F8BD00009002002030B50D4604000BD0A800FFF7ABFF6060002805D000202570C0436080002030BD012030BDFA
:4060000070B50D46040005D0002D03D00220205E002801DA012070BDFDF7E2FB0221615E60688900405828606088401E6080FDF7D1FB002070BD70B50D46040007D0002D47
:4060400005D002212078615E401E814201DB012070BDFDF7C5FB6088401C00B26080616880000D50FDF7B6FB002070BD10B5040009D0227800216068FDF76AFE0020C043C0
:406080006080002010BD012010BDF0B500231D46002802D00224045F0AE00120F0BD46689F00F6598E4201D1012503E05B1CDBB29C42F4DA15700020F0BD0000054B1122F3
:4060C0001A70054A1180064A0449116005490860704700009002002092020020D81200209C020020980200200148007870470000A40200207CB505460024FEF7B1FDA87931
:406100006946087000A8062229460130FDF717FE0021684604F090FB0C2804D0072804D01F2804D004E0022402E0042400E0272420467CBD10B502280BD0032802D004287A
:4061400009D102E000F000F905E000F0CFF9FF2801D100F0DFF9FFF73DFBFFF749FB10BD10B500F007FAFFF735FBFFF741FB10BD70B504460025FEF773FD002C06D0A079F8
:40618000012803D8214602F08CFB00E00125284670BD000010B503240CF06AF8002810D10CF00EF800280CD105F09CF8002808D100F0BCFB002804D104F098FD002800D150
:4061C0000024024900200870204610BDA402002070B50025044600280ED0A07901280BD8FEF73EFDA0790028204602D002F0B8FF03E002F06DFF00E00125284670BD10B5E7
:40620000FFF7E8FA012801D1FFF7EAFA10BD38B504460120002C20D0617801291DD800290BD0FF25E535FEF71BFD2846FFF798F9C0B22070072803D00EE0FF25CD35F2E743
:406240000020694608706846FFF7E6FA69460878012801D108202070002038BD70B504460120002C1FD06178012902D92278092A19D8002906D0FF25E535207807260928E2
:4062800003D003E0FF25CD35F7E72670FEF7E8FC2078082808D00020FFF700FB21782846FFF764F9002070BD0120FFF7F7FA2670F4E7000010B50B480024807B00280ED0A7
:4062C000FFF788FA062801D0032800D12824054820300079022801D0012800D12824204610BD00003C14002070B50D46040001D0002000E00548002802D0012102F0DAF86B
:406300002946204602F03CFC70BD00005C14002038B5054600200446009022466946284600F09CFF0098002801D00BF083FFA878214602F0E4F9A878214602F0D3F9641C36
:40634000E4B2052CE9D338BDF8B5624CFFF742FA012846D160480078002842D002F094FB0028FAD003F072FF0028F6D05B4E7078C00703D000F047FC0128EED0B07E00281E
:40638000E7D170780025002878D0000707D5AC20FFF7E6F8070B00F061F9384321D14F484178684603F030FE4D4F06462079B9784018C1B2B14271D802F066FB002810D029
:4063C000464C203402F08DF96846008802F0B9F902F062FA43490988884203D10120FFF737FA74E04049012008703C48807B00282BD04034608A002827D0E07E002824D104
:40640000A1200001FFF7ACF8208A4000B04218D97878002815D1A12424012046FFF7A0F80221884301462046FFF7A0F8FF24F1342046FFF795F80321090201432046FFF72E
:4064400095F83878002800D03D7002F0BDF90120FFF7F8F9244C08E0FDF73EF8FFF7BAF906282CD02078002829D0FFF7B3F9062825D020780128EFD021E0FFE702F004FB5F
:40648000002824D0142002F05CF9174C0120207002F09AF90020FFF7D5F909E015E0FDF71BF8FFF797F9062809D02078002806D0FFF790F9062802D020780128EFD0207829
:4064C00001288BD1FFF752F925700020F8BDFF20F8BD000028140020500200203C140020AA020020BC020020A502002010B50848FF244078002809D102F0C6FA012805D146
:40650000FFF756F80720FFF7A3F90024204610BD3C14002038B5FFF75DF9012801D0002038BD02F0B1FA00280AD0114C6078C00703D000F068FB012802D0A07E002801D07C
:40654000FF2038BD617800290FD0684603F05CFD022806D96846008802F0F3F8012002F039F90320FFF774F9D9E70020F7E700003C14002038B5FFF72DF9042819D00528CC
:4065800017D006281AD0032842D007280AD100206946087002460120FFF71CF8FFF71AF90128FBD138BDFCF797FFFFF713F90128F8D0FFF70FF90128F5D138BD02F028F977
:4065C00005E0FCF789FFFFF705F9012803D0FFF701F90128F5D1A12424012046FEF7C0FF01220E4983079B0F0A70022BE5D149880029E2D0104301462046FEF7B7FF2046A0
:40660000FEF7AEFF410849002046FEF7AFFF38BD02F002F90120FFF71BF938BDAA020020F8B50646002402F0ADFE0546304602F0C1FE00210346012632468A40174610469D
:406640002F401840002F03D0002801D1224394B2491CC9B20529EFD32046F8BD70B500252C460A4E03E0002C01D0002000E030460079002803D02046FFF7D2FF0543641CEE
:406680002406240EEFD0284670BD00005C1400201CB50020694648706846FFF7B8FD01AA69460A20FEF796FF6946042008561CBD10B50C4601F076F9002809D001790029B0
:4066C00006D0C1788078224602F008FB002010BD022010BD0148007870470000281400204030C07E002800D00120704700B500F001F800BD88214843064940186030417F82
:40670000491CC9B24177052901D300214177C8B2704700003C14002013B501F043F904000BD001F09AFC002807D0214601AA0A310620FEF74FFF00201CBD02201CBD000041
:4067400010B50C4601F02EF900280AD001F085FC002806D0224604490A20FEF73BFF002010BD022010BD000011140020F3B581B0074601460026029802F0FCFD0446002FB8
:4067800001D0002500E0154D002D21D0284601F03FF9032C04D13946029802F015FE06463846029901F09EFF032C06D0002C10D00121384601F01AFA03E03146384602F057
:4067C000B7FF284601F05CFE0221284601F072FEFEBD3846029901F085FFFEBD5C14002070B50446002503F0A5FB002801D00C2070BD2078611C02F06BFBFF2802D01F2581
:40680000284670BD02F0B8FBFF2804D02178621C01F0DAFEF4E70725F2E710B503F08AFB002801D00C2010BD02F02AFB002010BD70B50D46044610210BF03CFC102160185B
:4068400006460BF037FC334610221946204603F09DFB102130460BF02DFC02202870204604F09CF970BD70B504464078217802028006850FE0781143A67809050002090D34
:406880000643084601F08EF8002812D0022D10D0032D0ED0002E08D00179092909D0002907D0214600F0A1F870BD0089002104F0AAF820460BF0BEFC70BD0020704770B577
:4068C0000446002503F036FB002801D00C2070BD2078611C02F0FCFAFF2802D002F03EFA00E01F25284670BD10B504F0FFF900F0F6F8002010BD10B5044600786178E2789E
:406900000843A17811430843217908436179084305D003F001FB002803D00C2010BD122010BD204602F01CFC002010BD10B5044803F01CFC02F01CFA00F004F8002010BD39
:40694000F8130020F8B5114D00266E706E736E716E76AE76EE766E75AE70EE70AE712F46EE730120B03778723F2078719B20B87100F00AFA0024204601F036FB641C2406F5
:40698000240EF8D03E72FE71AE73F8BD3C14002070B505460E46084602F0F4FC0446304602F008FD0121A9400A46224001400A4301D0012070BD002070BD10B504460846B9
:4069C00002F0F8FC0121A140014201D0012010BD002010BD10B5FEF7FDFE032804D101F01BFF0120FEF734FF10BD70B5044600790D4609281CD000281AD020464030817EAA
:406A0000491C8176204601F03BFDA078FFF76EFE064602462946204600F00CF8002806D1A0783146FFF760FC28460BF003FC70BD0846FAE7F7B5054648780C468006870FCB
:406A4000C8788978000282B0014368468180284601F00EFB060007D021462846049A00F091FB304605B0F0BD384600F039FC0746034601AA2946204600F0CAFA684680887F
:406A8000231DC0B20090A878FF22049902F032F8684680883B46C2B2A878049902F0DCFBDFE770B5002500242846FFF7B9FD060010D03046E040C007C00F07D0214628465D
:406AC00001F003FE21462846FFF750FE641CE4B2052CEED36D1C2D062D0EE4D070BD10B502F046F9FFF72EFF0BF00CFC002010BDF8B5002400F081F80123012800D1012425
:406B0000104F00203E4620360425082203E0002801D0002100E031460979002907D001290BD002290BD0114681402143CCB2401C0006000EEBD07C70F8BD1C43F7E72C4356
:406B4000F5E700003C14002010B5FFF7D1FF10BD10B50B4681791943817103D08078114602F03EFB10BD10B582798A43827102D1807802F04DFB10BD70B5FF25D53502242E
:406B80002846FEF7EDFC0C4A9178002901D0022906D1137852789A18282A01D9032402E0032900D101244105490DE00201432846FEF7DCFC70BD0000A602002010B500F029
:406BC00022F8002807D0012805D0032801D0042801D0002010BD012010BD014610B50020C90701D000F009F810BD014610B50020C90701D000F001F810BD10B52020FEF7A2
:406C0000AFFC000A10BD10B51820FEF7A9FC410501D5042010BD4007800F10BD38B5044640060CD5684601F007FE0220FFF78CFF072002F0B9F96846007801F03FF92006A6
:406C400013D5FFF7E0FF01280FD1684601F0F4FD6846007800F09AFA072002F0A5F9012001F076FC0220FFF76FFF38BD10B5034A0178117002F0A7F9002010BDA60200200B
:406C800010B50446FFF7B9FF002801D00C2010BDA27B01211848002A827801D00A4301E05208520082706279012A0FD0C17849084900C170207901280CD06188208802F0BB
:406CC000A5FF2080207904280BD00DE0C2780A43C270EFE7E01D02F02BFA0848808C208002E0E01D02F024FA054920798870204602F078F9002010BD3C140020E813002015
:406D0000A602002038B50478FFF777FF844201D10C2038BD002C18D0072069460870FFF74DFF012807D10121684600F08DF8012801D0092038BD6846007802F035F9FFF7BF
:406D40001BFF02F07FF9012010E0FFF737FF012806D1684601F070FD6846007800F04AFA072002F021F902F061F90220FFF7ECFE002038BD10B5034A0178517002F008FA16
:406D8000002010BDA602002038B568460BF0E8F9002801D01F2038BD01210098C90201804180002505714571857107214173857302F018F9009C202200212046FCF7C8FF76
:406DC00025702A460021601CFCF7C2FF204602F0FAF8204602F0DCF900980BF02BFA042200210248FCF7B4FF002038BDA60200200346084800B5834209D8184600F0D2FDE9
:406E0000002804D00089984201D1012000BD002000BD0000FF0E0000074A9179491C8906890E917138220A4092014907090E114308430249084070473C140020FF0E00006D
:406E4000C006C00E70470000F8B507460E4600240D4803E0002C01D0002500E005462979002905D0641C2406240EF3D00020F8BD204601F0B9F82E712046FFF7CDFF288144
:406E80003C700120F8BD00005C14002010B503F0B1F80222002100F003F801F011FF10BD10B5094B40074907000F090F185A595A40185043C0086421FCF79AFE002800D1A9
:406EC000012080B210BD0000EA4E0100F7B53D20405C88B016460C46002829D030786946087200252046FFF7FBFB012800D00125204603A938300191009023460327A17ED8
:406F000034332A46206A03F04BF902A8089900900B46019120463A4603A9243003F018F802466846007A3070204601F049F810460BB0F0BDFFB587B00C46054610786946ED
:406F400008723D20005D1746002826D000262046FFF7C6FB012800D00126204603A93830019100902346A17E34333246206A03F017F902A80090291D019120462B1D03A903
:406F800024300A9A02F0E4FF02006846007A388002D1204601F014F810460BB0F0BDF7B53C20405C88B015460C4600280CD0287869460872002806D000262046FFF790FBCD
:406FC000012803D003E01F200BB0F0BD0126204603A938300191009023460327E17E34333246E06903F0DCF802A8089900900B46019120463A4603A9243002F0DBFF0246AF
:407000006846007A2870204600F0E4FF1046DBE7FFB505463C20405C87B016460C46002810D0084601F024F801280BD0308869460883002809D000272046FFF751FB012811
:4070400005D005E000200BB0F0BD0220FBE70127204602A93830019100902346E17E34333A46E06903F09CF806A80090291D019120462B1D02A924300A9A02F09BFF02464D
:407080006846008B30806846008BA870000AE870204600F09FFF1046D5E770B50D460446FFF71EFB01280AD0E87AA97A00020143A07801F0C3FC012808D0002070BD002257
:4070C0002421204602F0ECFC242070BD28214C200155204600F09AFB282070BD002801D0002000E003484030C07F012800D00020704700005C1400200146002049070ED542
:407100000021084B03E0002901D0002200E01A461279022A04D0491C0906090EF3D07047012070475C1400200146002049070ED50021084B03E0002901D0002200E01A4657
:407140001279022A04D0491C0906090EF3D07047012070475C14002010B5044680346068002803D00BF07AF80020606010BD403041707047403081707047403001707047EF
:407180000171704792001018C166704770B53C2501F0F8F8040004D020460021433001F0EDFB2946204600F0C0FB002C02D0A07801F07AF870BD000010B5002801D00020F8
:4071C00000E00348002802D0008903F063FC10BD5C14002010B5002801D0002000E00448002804D00179072901D100F041F810BD5C14002010B501F0C5F8002802D08078C5
:4072000001F052F810BD00207047000070B50546008A00281ED010491122897A1140C90618D5294640314A8A098A521C4A4392B2D10800D10121540801E0621A94B2A04290
